:100000000C94B5000C94D2000C94D2000C94D20045
:100010000C94D2000C94D2000C94D2000C94D20018
:100020000C94D2000C94D2000C94D2000C94D20008
:100030000C94D2000C94D2000C94D2000C94D200F8
:100040000C94D2000C94D2000C94D2000C94D200E8
:100050000C94D2000C94D2000C94D2000C94D200D8
:100060000C94D2000C94D2006E616E00696E660032
:1000700000407A10F35A00A0724E18090010A5D45F
:10008000E80000E87648170000E40B54020000CABC
:100090009A3B000000E1F505000080969800000002
:1000A00040420F000000A086010000001027000061
:1000B0000000E803000000006400000000000A00E7
:1000C000000000000100000000002C76D888DC67EA
:1000D0004F0823DFC1DFAE59E1B1B796E5E3E45342
:1000E000C63AE651997696E8E6C28426EB898C9B5F
:1000F00062ED407C6FFCEFBC9C9F40F2BAA56FA5FF
:10010000F490055A2AF75C936B6CF9676DC11BFC80
:10011000E0E40D47FEF520E6B500D0ED902E03009B
:10012000943577050080841E080000204E0A0000E8
:1001300000C80C333333330F986E12831141EF8DA7
:100140002114893BE65516CFFEE6DB18D1844B38E7
:100150001BF77C1D901DA4BBE424203284725E2218
:100160008100C9F124ECA1E53D2711241FBECFEF8A
:10017000D8E0DEBFCDBF12E0A0E0B1E0E6ECF0E1F8
:1001800002C005900D92AC39B107D9F722E0ACE975
:10019000B2E001C01D92A23AB207E1F70E946301EA
:1001A0000C9461080C940000229A2A9A239A2C9AA3
:1001B000259A8CB581608CBD8CB580618CBD8CB569
:1001C00080648CBD08958EBD0DB407FEFDCF0895EB
:1001D000CF92DF92EF92FF92C72ED82EE92EFF2406
:1001E0008C2D0E94E3008C2D0E94E3008C2D0E9438
:1001F000E300FF90EF90DF90CF9008952A9880EA77
:100200000E94E30080E00E94E3002A9A8EB50895E0
:10021000CF92DF92EF92FF926B017C012A9883E0EC
:100220000E94E300C701B6010E94E80080E00E943E
:10023000E3002A9A8EB5FF90EF90DF90CF9008955B
:10024000CF92DF92EF92FF92CF936B017C01C42F8C
:100250002A9882E00E94E300C701B6010E94E800EC
:100260008C2F0E94E3002A9ACF91FF90EF90DF90AD
:10027000CF900895CF92DF92EF92FF92CF93C12C4F
:10028000D12C76012A9882E00E94E300C701B601D2
:100290000E94E800C0E280E00E94E300C150D9F76C
:1002A0002A9A80E2C80ED11CE11CF11CC11484EF13
:1002B000D80681E0E806F10429F7CF91FF90EF908E
:1002C000DF90CF9008950E94D4000E949A0280E0AF
:1002D00091E090939F0280939E0204E712E0C0E0B9
:1002E0008EE091E00E94BB0286E391E00E94BB0297
:1002F000C12CD12C76018AE491E00E94BB028C2DA6
:100300000E94D10287E491E00E94BB02C701B601BE
:100310000E9408010E94D10285EB91E00E94BB027D
:100320008FEFC81AD80AE80AF80A9AE0C916D10469
:10033000E104F10401F78DE491E00E94BB0288E63C
:1003400091E00E94BB028EE791E00E94BB028DE922
:1003500091E00E94BB020E94B3028D3609F454C0A2
:1003600018F4853631F0E1C0823769F1873741F002
:10037000DCC088EB91E00E94BB020E943A01B0CF42
:100380008DEF91E00E94BB0240E06FEF70E080E0F3
:100390009EEF0E9420010F2ECC24CA94D12CE12C78
:1003A000FEEFFF2EF02DC5E001C0C0E08FEFD81AA0
:1003B000E80AF80A4C2FC701B6010E942001CB5F62
:1003C000CA3FA1F7F2CF89E092E00E94BB020F2E54
:1003D000CC24CA94D12CE12CFEEFFF2EF02DC8E1E5
:1003E000D2E0C701B6010E9408011F928F93DF93EC
:1003F000CF930E94ED079FEFD91AE90AF90A0F90EF
:100400000F900F900F90EDCF8EE292E00E94BB0212
:100410000E94FE0080FD06C00F2EF0E33F2EF02D5F
:100420007C2E05C00F2EF1E33F2EF02D7C2E0E9476
:10043000FE0081FD06C00F2EF0E34F2EF02D8C2E16
:1004400005C00F2EF1E34F2EF02D8C2E0E94FE00E2
:1004500082FD06C00F2EF0E35F2EF02D9C2E05C00E
:100460000F2EF1E35F2EF02D9C2E0E94FE0083FDE7
:1004700006C00F2EF0E36F2EF02DAC2E05C00F2E10
:10048000F1E36F2EF02DAC2E0E94FE0084FD06C01D
:100490000F2EF0E3CF2EF02DBC2E05C00F2EF1E372
:1004A000CF2EF02DBC2E0E94FE0085FD06C00F2E23
:1004B000F0E3EF2EF02DDC2E05C00F2EF1E3EF2E32
:1004C000F02DDC2E0E94FE0086FD03C0D0E3FC2E42
:1004D00002C0D1E3FC2E0E94FE0088231CF080E3C2
:1004E0009C2F02C081E39C2F7F923F928F924F926C
:1004F0009F925F92AF926F92BF92CF92DF92EF92F4
:10050000FF92DF939F938F931F930F930E94ED07AA
:1005100085EB91E00E94BB028DB79EB742960FB665
:10052000F8949EBF0FBE8DBFDBCE81E992E00E94A2
:10053000BB02D6CE1092C50087E68093C400E0ECE3
:10054000F0E080818D7F808388E18093C10086E028
:100550008093C2000895E0ECF0E0908195FFFDCF1C
:100560008093C6000895E0ECF0E080818823ECF7EA
:100570008091C60008950F931F93CF93FC01808153
:10058000882359F08F01C0E00E94AB02CF5FF801D1
:10059000EC0FF11D80818111F7CFCF911F910F9149
:1005A0000895CF93DF93D82F89E2D89F812D11240E
:1005B00082958F70805D0E94AB029DECD99FC12D0A
:1005C0001124C695C695C695C99F912D112496955F
:1005D00096959695990F892F880F880F980F8C2FD5
:1005E000891B805D0E94AB02CC0F8C2F880F880F77
:1005F000C80F8D2F8C1B805D0E94AB02DF91CF91C5
:100600000895CF93C82F8A3019F48DE00E94AB0271
:100610008C2F0E94AB0280E090E0CF910895A0E182
:10062000B0E0E5E1F3E00C948C067C011B016A016B
:10063000FC0117821682838181FF44C39E012F5FD4
:100640003F4F3901F7019381F10193FD859193FFAC
:1006500081911F01882309F431C3853239F493FD58
:10066000859193FF81911F01853239F4B70190E0A4
:100670000E94B10756016501E5CF10E0512C912C85
:10068000FFE1F915D8F08B3279F038F4803279F047
:100690008332A1F4F92DF0612EC08D3261F08033E8
:1006A00069F4292D21602DC0392D3260932E892DBA
:1006B0008460982E2AC0E92DE86015C097FC2DC0F3
:1006C00020ED280F2A3088F496FE06C03AE0139FEA
:1006D000200D1124122F19C08AE0589E200D1124DC
:1006E000522EE92DE0629E2E10C08E3231F496FC1F
:1006F000E5C2F92DF0649F2E08C08C3621F4292D17
:100700002068922E02C0883641F4F10193FD859154
:1007100093FF81911F018111B3CF9BEB980F933011
:1007200020F4992D9061805E07C09BE9980F93306B
:1007300008F066C1992D9F7E96FF16E09F73992E53
:10074000853619F49064992E08C0863621F4392F25
:100750003068932E02C01111115097FE07C01C3350
:1007600050F444244394410E27E00BC0183038F075
:1007700027E017E005C027E09CE3492E02C0212FA7
:10078000412C560184E0A80EB11CF60160817181F4
:1007900082819381042DA3010E94C3066C01F9811B
:1007A000FC87F0FF02C0F3FF06C091FC06C092FE7A
:1007B00006C000E205C00DE203C00BE201C000E08C
:1007C0008C858C7019F001115AC29BC297FE10C023
:1007D0004C0CFC85F4FF04C08A81813309F44A94EF
:1007E000141474F528E0241578F588E0482E2CC000
:1007F00096FC2AC0812F90E08C159D059CF03CEF63
:10080000C3163FEFD30674F0892D8068982E0AC076
:10081000E2E0F0E0EC0FFD1FE10FF11D808180337D
:1008200019F411501111F4CF97FE0EC044244394D3
:10083000410E812F90E0C816D9062CF41C1904C073
:100840004424439401C010E097FE06C01C141D040C
:1008500034F4C601019605C085E090E002C081E055
:1008600090E001110196112331F0212F30E02F5F2C
:100870003F4F820F931F252D30E08217930714F40A
:10088000581A01C0512C892D897049F4552039F02E
:10089000B70180E290E00E94B1075A94F7CF00239D
:1008A00029F0B701802F90E00E94B10793FC09C0A6
:1008B000552039F0B70180E390E00E94B1075A94C7
:1008C000F7CF97FE4CC04601D7FE02C0812C912C79
:1008D000C60188199909F301E80FF91FFE87ED8712
:1008E000960124193109388B2F87012F10E01195BB
:1008F000019511093FEF8316930629F4B7018EE2A3
:1009000090E00E94B107C814D9044CF08F859889F3
:100910008815990524F4ED85FE85818101C080E369
:10092000F1E08F1A91082D853E852F5F3F4F3E875E
:100930002D87801691062CF0B70190E00E94B10738
:10094000D9CFC814D90441F49A81963320F4953351
:1009500019F43C8534FF81E3B70190E04EC08A81F1
:10096000813319F09C859F7E9C87B70190E00E949F
:10097000B107111105C094FC18C085E690E017C0BE
:10098000B7018EE290E00E94B1071E5F82E001E0B5
:10099000080FF301E80FF11D8081B70190E00E947C
:1009A000B107802F0113F3CFE6CF85E490E0B701C4
:1009B0000E94B107D7FC06C0C114D10441F4EC85F4
:1009C000E4FF05C0D194C194D1088DE201C08BE24F
:1009D000B70190E00E94B10780E32AE0C216D1047B
:1009E0002CF08F5FFAE0CF1AD108F7CFB70190E073
:1009F0000E94B107B701C601C0960E94B10754C159
:100A0000833631F0833779F0833509F056C020C042
:100A1000560132E0A30EB11CF6018081898301E00A
:100A200010E0630112C05601F2E0AF0EB11CF601F6
:100A3000C080D18096FE03C0612F70E002C06FEFCE
:100A40007FEFC6010E94A6078C01F92DFF7714C025
:100A5000560122E0A20EB11CF601C080D18096FEA4
:100A600003C0612F70E002C06FEF7FEFC6010E94EC
:100A70009B078C01F92DF0689F2EF3FD1AC0852D80
:100A800090E008171907A8F4B70180E290E00E94EF
:100A9000B1075A94F4CFF60197FC859197FE8191A6
:100AA0006F01B70190E00E94B10751105A940150B4
:100AB00011090115110579F7F7C0843611F089364F
:100AC00061F5560197FE09C024E0A20EB11CF601A3
:100AD00060817181828193810AC0F2E0AF0EB11C06
:100AE000F60160817181072E000C880B990BF92D9E
:100AF000FF769F2E97FF09C0909580957095619520
:100B00007F4F8F4F9F4FF0689F2E2AE030E0A30168
:100B10000E940308C82EC6183FC0092D853721F44E
:100B20000F7E2AE030E01DC0097F8F3691F018F467
:100B3000883559F0C3C0803719F0883711F0BEC02E
:100B4000006104FF09C0046007C094FE08C006608D
:100B500006C028E030E005C020E130E002C020E11E
:100B600032E0560107FF09C084E0A80EB11CF6016F
:100B7000608171818281938108C0F2E0AF0EB11C67
:100B8000F6016081718180E090E0A3010E9403087A
:100B9000C82EC6180F77902E96FE0BC0092D0E7F1B
:100BA000C11650F494FE0AC092FC08C0092D0E7EB6
:100BB00005C0DC2C092D03C0DC2C01C0D12E04FFA4
:100BC0000DC0FE01EC0DF11D8081803311F4097E12
:100BD00009C002FF06C0D394D39404C0802F867846
:100BE00009F0D39403FD11C000FF06C01C2DD514DD
:100BF00080F4150D1D190DC0D51458F4B70180E20D
:100C000090E00E94B107D394F7CFD51410F45D188B
:100C100001C0512C04FF10C0B70180E390E00E9496
:100C2000B10702FF17C001FD03C088E790E002C0D2
:100C300088E590E0B7010CC0802F867859F001FF5D
:100C400002C08BE201C080E207FD8DE2B70190E0B7
:100C50000E94B107C11638F4B70180E390E00E940A
:100C6000B1071150F7CFCA94F301EC0DF11D80814B
:100C7000B70190E00E94B107C110F5CF15C0F4E0B4
:100C8000F51560F584E0581A93FE1FC0011127C0C6
:100C90002C8523FF2AC008E610E0392D3071932EF1
:100CA000F8018491811124C0552009F4E4CCB701E6
:100CB00080E290E00E94B1075A94F6CFF701868156
:100CC000978126C08FEF9FEF23C0B70180E290E0AD
:100CD0000E94B1075A945110F8CFD8CF512CB701C8
:100CE000802F90E00E94B107D3CF0CE610E0D5CF63
:100CF00091108052B70190E00E94B1070F5F1F4F23
:100D0000CFCF23E0251510F483E0BDCF512CC0CF09
:100D10006096E2E10C94A8062F923F924F925F9268
:100D20006F927F928F929F92AF92BF92CF92DF92FB
:100D3000EF92FF920F931F93CF93DF93CDB7DEB760
:100D4000CA1BDB0B0FB6F894DEBF0FBECDBF0994F4
:100D50002A88398848885F846E847D848C849B844B
:100D6000AA84B984C884DF80EE80FD800C811B8159
:100D7000AA81B981CE0FD11D0FB6F894DEBF0FBE88
:100D8000CDBFED010895283008F027E03327DA01C0
:100D9000990F311D87FD916000966105710539F449
:100DA00032602E5F3D9330E32A95E1F708959F3F2F
:100DB00030F080387105610509F03C5F3C5F3D9380
:100DC000913008F08068911DDF93CF931F930F93AC
:100DD000FF92EF92192F987F9695E92F9695969509
:100DE000E90FFF27E653FF4F99273327EE24FF240F
:100DF000A701E70105900894079428F4360FE71E31
:100E0000F81E491F511D660F771F881F991F0694F2
:100E1000A1F70590079428F4E70EF81E491F561F06
:100E2000C11D770F881F991F661F0694A1F70590B3
:100E3000079428F4F80E491F561FC71FD11D880FAD
:100E4000991F661F771F0694A1F70590079420F459
:100E5000490F561FC71FD81F990F661F771F881F7E
:100E60000694A9F784911095177041F0D695C7950F
:100E700057954795F794E7941A95C1F7E0E7F0E0A6
:100E800068941590159135916591959105907FE243
:100E90007395E118F10A430B560BC90BD009C0F743
:100EA000E10CF11E431F561FC91FD01D7EF4703385
:100EB00011F48A95E6CFE894015030F0080F0AF457
:100EC0000027021708F4202F2395022F7A3328F0E9
:100ED00079E37D932A95E9F710C07D932A9589F6E9
:100EE000069497956795379517951794E118F10A29
:100EF000430B560BC90BD00998F023957E9173953F
:100F00007A3308F070E37C932013B8F77E91706118
:100F10007D9330F0839571E37D9370E32A95E1F73B
:100F20001124EF90FF900F911F91CF91DF9199279E
:100F300087FD90950895FC01059061507040011067
:100F4000D8F7809590958E0F9F1F0895FC016150F2
:100F5000704001900110D8F7809590958E0F9F1FDB
:100F600008950F931F93CF93DF93FB01238121FDFE
:100F700003C08FEF9FEF2CC022FF16C04681578120
:100F8000248135814217530744F4A081B1819D012A
:100F90002F5F3F4F318320838C93268137812F5FD2
:100FA0003F4F3783268314C08B01EC01FB01008483
:100FB000F185E02D0995892BE1F6D80116968D91E2
:100FC0009C911797019617969C938E931697CE0136
:100FD000DF91CF911F910F910895A0E0B0E0E3EF72
:100FE000F7E00C949C06AE014B5F5F4FFA016191F4
:100FF0007191AF0180919E0290919F020E940F0318
:10100000E2E00C94B806FA01AA27283051F1203109
:1010100081F1E8946F936E7F6E5F7F4F8F4F9F4F8C
:10102000AF4FB1E03ED0B4E03CD0670F781F891FCE
:101030009A1FA11D680F791F8A1F911DA11D6A0F9C
:10104000711D811D911DA11D20D009F468943F914F
:101050002AE0269F11243019305D3193DEF6CF014E
:101060000895462F4770405D4193B3E00FD0C9F714
:10107000F6CF462F4F70405D4A3318F0495D31FD81
:101080004052419302D0A9F7EACFB4E0A6959795D4
:10109000879577956795BA95C9F7009761057105AA
:1010A00008959B01AC010A2E0694579547953795F4
:1010B0002795BA95C9F7620F731F841F951FA01D4E
:0610C0000895F894FFCF33
:1010C60000000002000000000103000000000D0AFD
:1010D6003D3D3D3D2020454550524F4D204D656DCF
:1010E6006F727920506C617967726F756E64203DFE
:1010F6003D3D3D0D0A0041646472657373202056C0
:10110600616C75650D0A00202020202000205B659B
:101116005D20746F20657261736520616C6C206D53
:10112600656D6F72790D0A00205B725D20746F2009
:1011360072656164206D656D6F72790D0A00205BC2
:10114600775D20746F2077726974652062797465A3
:1011560020746F206D656D6F72790D0A00205B6DCE
:101166005D20746F20636865636B20746865206D0D
:101176006F64650D0A0D0A00436C656172696E67DE
:1011860020454550524F4D2C207468697320636F7B
:10119600756C642074616B652061206665772073C9
:1011A60065636F6E64732C20706C65617365206275
:1011B600652070617469656E742E0D0A0057726938
:1011C60074696E67202E2E2E0052656164696E6703
:1011D600202E2E2E200D0A000D0A2054686520763A
:1011E600616C7565206973202575200D0A004669B6
:1011F6006E64696E67206F757420746865206D6F04
:101206006465206269747320776869636820696E13
:1012160064696361746520746865204D6F64652038
:101226006F6620746865206F7065726174696F6E91
:10123600200D0A00546865206D6F6465206973206F
:101246002563256325632563256325632563256358
:0C12560000576861743F3F200D0A000043
:00000001FF
